:020000040800F2
:100000002810002021DE0008ADDF0008B1DF000865
:10001000B5DF0008B9DF0008BDDF00080000000000
:1000200000000000000000000000000073950008C0
:10003000C1DF00080000000021950008DD960008DF
:10004000F1D00008F3D00008C5DF0008C9DF0008C0
:10005000F5D00008F7D00008F9D00008FBD0000860
:10006000FDD00008FFD0000801D1000803D100082E
:1000700035D100087BD10008ABD10008F3D10008CE
:1000800023D2000853D20008CDDF0008D1DF0008DA
:10009000D5DF0008D9DF0008DDDF000895D20008B1
:1000A000E1DF0008E5DF0008E9DF0008EDDF000818
:1000B000D5D20008D7D20008D9D20008DBD2000878
:1000C000DDD20008DFD20008E1D20008E3D2000848
:1000D000E5D20008E7D2000841D300089BD300080E
:1000E0003DD40008F1DF0008F5DF000849D400081E
:1000F0004BD400083FD4000841D4000843D4000882
:1001000045D4000847D400084DD400084FD4000857
:1001100051D40008F9DF0008FDDF000801E0000805
:1001200005E000080020C0B2032813DADFF8401C05
:10013000C0B24FF49D7202FB00F2895C51F00101E4
:10014000DFF82C2CC0B24FF49D7303FB00F3D154A5
:10015000401CE8E7704770B44FF6FE6505806825DF
:100160008570EE25C57000252C00DFF8085CA4B270
:1001700025446D78A4B200EB04063571641CA4B26A
:10018000072CF2D300252C0000252900457B2A00EE
:100190001202057BAA180C32851C2B0025006C1C52
:1001A000ADB2954203D21D7869185B1CF6E7197051
:1001B00016255D7070BC704710B401000022D2B2E9
:1001C000032A30DADFF8A80BD2B24FF49D7303FB99
:1001D00002F3C05C10F00100002822D0DFF8900B81
:1001E000D2B24FF49D7303FB02F3C05C10F0FE002B
:1001F000DFF87C3BD2B24FF49D7404FB02F4185537
:10020000DFF86C0BD2B24FF49D7303FB02F318447A
:100210004170DFF85C0BD2B24FF49D735A43104427
:1002200002E0521CCBE7002010BC704710B4002144
:10023000C9B2032929DADFF8382BC9B24FF49D730C
:1002400003FB01F31A4490420AD0DFF8242BC9B211
:100250004FF49D7303FB01F31A44921C904212D198
:10026000DFF80C2BC9B24FF49D7303FB01F3D25C92
:1002700052F00102DFF8F83AC9B24FF49D7404FB62
:1002800001F41A5501E0491CD2E710BC7047F8B5DB
:100290000400002020700020FFF78EFF0700002FD1
:1002A00001D1002059E0002364220021DFF80C0D69
:1002B000006802F03FF9012809D102F0EDFA0023AD
:1002C00000220021DFF8F40C006802F022F8B81CCC
:1002D00006002078411C21704B21C0B23154207897
:1002E000411C21704921C0B231542078411C217039
:1002F0004E21C0B231542078411C21704721C0B238
:1003000031542078411C21704421C0B231542078EE
:10031000411C21704121C0B2315400200500EDB2D2
:10032000072D0BD22078411C2170DFF8481AEDB25E
:1003300029444978C0B231546D1CF0E72078411C43
:100340002170DFF87C1C897AC0B231542078411CBE
:1003500021707621C0B23154B81CF2BDF0B583B023
:1003600004000D006846DFF85C1C072203F078FEED
:100370000023002100221800431E2E0080B2B6B2D6
:10038000B0423CD220786B2837D10020010068466B
:10039000C9B2405C002808D06846C9B2405CC9B206
:1003A000665CB04201D1491CF1E76846C9B2405CC5
:1003B000002822D100200200D2B2072A0CD210005D
:1003C000421CC9B2665CDFF8007CC0B23844407899
:1003D000864201D1491CEFE7D2B2072A0DD10800AD
:1003E000411CC0B2205C6F2807D10800411CC0B27C
:1003F000205C6B2801D1002002E0641CBBE779205F
:10040000FEBD2DE9FF4704008A46150000260020A6
:1004100081461FFA8AFABAF10C0F18D31FFA89F92C
:1004200014F8090068280DD11FFA89F904EB0900B6
:100430000700514689B2380000F030F90600F6B2E4
:10044000002E04D019F10109BAF1010AE1E71FFAFF
:100450008AFABAF10D0F01D26C201CE12800C0B25B
:10046000FFF7AAFE8046B8F1000F01D1672012E124
:1004700017F10C0003908DF8085018F1100001904E
:100480000020ADF80000787A01282DD0022837D05E
:10049000032841D004284BD0072855D008285FD026
:1004A000092869D00B286DD00C2871D00E2875D082
:1004B0000F2879D014287DD0152800F081801628C7
:1004C00000F08680172800F08980182800F08C80C2
:1004D0001C2800F08F801D2800F09280202800F05A
:1004E000958032286CD09DE07889082805D169462E
:1004F00002A800F018F9060001E06B20060093E066
:100500007889012805D1694602A800F0C3F90600E0
:1005100001E06B20060087E07889072805D169464D
:1005200002A800F005FA060001E06B2006007BE05F
:100530007889012805D1694602A800F030FA060042
:1005400001E06B2006006FE078893E2805D16946FE
:1005500002A800F03AFA060001E06B20060063E012
:100560007889012805D1694602A800F065FA0600DD
:1005700001E06B20060057E0694602A800F073FA1C
:10058000060051E0694602A800F01DFB06004BE0A2
:10059000694602A800F0F0FB060045E0694602A8A3
:1005A00000F004FC06003FE0694602A800F00EFDE2
:1005B000060039E0694602A800F00FFE060033E0AD
:1005C000694602A800F01EFE0600322078722BE079
:1005D000694602A800F0F6FF060025E0694602A879
:1005E00001F0AAF806001FE0694602A801F0A8F988
:1005F000060019E0694602A801F006FA060013E0B9
:10060000694602A801F063FA06000DE07889012826
:1006100005D1694602A801F00BFB060001E06B2042
:10062000060001E068200600F6B2002E05D0404624
:10063000FFF7FCFD3000C0B22DE0F87A81465FEA9A
:100640000929B87A10EB0909787A88F80D001FFAA1
:1006500089F907EB0900C07ABDF80010414408741D
:10066000BDF80000401CADF80000BDF8000080B2ED
:10067000000A88F80F00BDF8000088F80E0018F195
:1006800002012800C0B201F005FB06004046FFF75A
:10069000CDFD3000C0B204B0BDE8F08770B40200F8
:1006A0005078EE2801D06C203BE0D07A05002D0276
:1006B000907A45190C35AD1C08002E0080B2B6B2F8
:1006C000B04201D26B202CE0002003009BB2072B2C
:1006D0000ED29BB202EB03008078DFF8EC689BB28D
:1006E0001E447678B04201D07A201AE05B1CEDE718
:1006F0000020030000200400AD1E18002E0080B270
:10070000B6B2B04204D29BB2D05C04195B1CF4E7D1
:100710002000ADB2565DC0B2B04201D06D2000E005
:10072000002070BC704770B584B004000D00002636
:100730006A460221606803F089FD00280DD09DF80B
:10074000000010F5FA60ADF80A00BDF80A00B0F537
:10075000FC6F04DC6420060001E0642006006A46A9
:1007600002216068401C03F071FD00280AD09DF84A
:1007700000008DF809009DF809000D2804DB6420B5
:10078000060001E0642006006A4602216068801CC1
:1007900003F05CFD002811D09DF800008DF80800E2
:1007A0009DF80910BDF80A0003F0BCFC9DF8081084
:1007B000C0B2884204D26420060001E06420060032
:1007C0006A4602216068C01C03F040FD00280AD080
:1007D0009DF800008DF806009DF80600182804DB3F
:1007E0006420060001E0642006006A460221606879
:1007F000001D03F02BFD00280AD09DF800008DF8A5
:1008000005009DF805003C2804DB6420060001E09B
:10081000642006006A4602216068401D03F016FD50
:1008200000280AD09DF800008DF804009DF804000F
:100830003C2804DB6420060001E0642006006A46D0
:1008400002216068801D03F001FD00280AD09DF898
:1008500000008DF807009DF80700082804DB6420DD
:10086000060001E064200600F6B2002E0AD103F073
:100870007FFF01A804F0DFFB03F082FF002069681E
:10088000087002E0CC2069680870012028800020F0
:1008900004B070BD30B583B004000D00684604F0AC
:1008A00007FDBDF80600B0F5FA6F06DDBDF80600DD
:1008B000B0F5FA60ADF8060002E00020ADF80600E1
:1008C00002226968BDF80600C0B203F081FC022272
:1008D0006868411C9DF8050003F07AFC02226868F4
:1008E000811C9DF8040003F073FC02226868C11C9F
:1008F0009DF8020003F06CFC02226868011D9DF85F
:10090000010003F065FC02226868411D9DF80000AB
:1009100003F05EFC02226868811D9DF8030003F06D
:1009200057FC00206968C8710820288000203EBD5F
:100930002DE9F84304000D0003F01AFF0627D4F850
:100940000480DFF8E89D3A004146484603F088FB02
:1009500008200600DFF8D80D86190622DFF8CC1D26
:10096000300004F0B6FE0622DFF8C01D300004F0AF
:10097000A3FE06226168DFF8B40D04F013FF00281F
:1009800003D100206968087002E0CC206968087013
:1009900003F0F6FE012028800020BDE8F2832DE957
:1009A000F04104000D000626DFF8807DD5F80480B4
:1009B00032003900404603F053FB0020696888711B
:1009C000072028800020BDE8F0812DE9F8430400CD
:1009D0000D0003F0CDFE3D27D4F80480DFF8549DD0
:1009E0003A004146484603F03BFB0E200600DFF884
:1009F000400D86193D22DFF83C1D300004F069FEF1
:100A00003D22DFF8301D300004F056FE3D226168C3
:100A1000DFF8200D04F0C6FE002803D1002069682D
:100A2000087002E0CC206968087003F0A9FE01207C
:100A300028800020BDE8F2832DE9F04104000D007C
:100A40003D26DFF8F07CD5F80480320039004046BE
:100A500003F006FB0020696881F83D003E202880F5
:100A60000020BDE8F0812DE9F24F84B0040000259C
:100A700000208DF802000026606800791A2880F2B4
:100A8000978060680079002800F0928030006168EB
:100A90000979C0B2884276D26068F6B20A2101FBB9
:100AA00006F10844407BC0F30210C0B2012823D0F5
:100AB0006068F6B20A2101FB06F10844407BC0F3EE
:100AC0000210C0B2022817D06068F6B20A2101FBFA
:100AD00006F10844407BC0F30210C0B203280BD0DB
:100AE0006068F6B20A2101FB06F10844407BC0F3BE
:100AF0000210C0B2042846D19DF802006168F6B227
:100B00000A2202FB06F21144497BC1F30211C9B269
:100B100088420ED00020ADF800006068F6B20A21CD
:100B200001FB06F10844407BC0F302108DF802007F
:100B300004E0BDF80000401CADF800000D275FF098
:100B400000080DF1040942463900484604F05CFEF5
:100B50005FF00A096068F6B20A2101FB06F1084459
:100B600010F1050A0DF1050B4A465146584603F0AF
:100B700077FA694601A804F0CFFF0500EDB2002D19
:100B800001D1761C82E7EDB2002D04D1002004993A
:100B90004968087010E0EDB2022D04D104200499D8
:100BA0004968087008E0112004994968087003E05A
:100BB00022200499496808700120049908800020C7
:100BC00005B0BDE8F08F2DE9F04F87B004000D00AF
:100BD000002601A804F04CFE002815D060680078BB
:100BE0006968087000206968A1F8010060680078F1
:100BF0006968C8700020696808716868401D0090C5
:100C0000202000990870A8E0BDF804000700BDF896
:100C10000600C719BDF80800C719BDF80A00C719B2
:100C2000BFB2192097FBF0F069680870BFB21920B5
:100C300097FBF0F100FB1170002804D06868007881
:100C4000401C6968087000206968A1F8010038003C
:100C500080B2000A696888706868477068680078C0
:100C60006168097888426BD32078102818D08128D1
:100C700006D0822808D083280AD084280CD013E01C
:100C8000DFF8A40C804611E0DFF8A00C80460DE0F0
:100C9000DFF89C0C804609E0DFF8980C804605E000
:100CA000DFF8940C804601E078205DE06068007811
:100CB0006968C87060680078012802D10020A8F82F
:100CC00000000020696808716868007919282BDA2B
:100CD000B8F80010481CA8F8000089B204A804F075
:100CE00035FE0600F6B2002E15D15FF00A090DF1AF
:100CF000110A6868696809790A225143084410F1A9
:100D0000050B4A465146584603F0AAF9686800792F
:100D1000401C69680871B8F80000B0F5C87FD3DBE3
:100D20006868C078696808706868696809790A2223
:100D300051430844401D00900020009908700CE0C9
:100D4000606800786968C870002069680871686820
:100D5000401D0090202000990870686800790A21E1
:100D60004843801D2880002007B0BDE8F08F0000B8
:100D7000389A002054A1002010B4020000204C68D2
:100D8000207000204C68A4F80100506800784C687E
:100D9000E07000204C6820714868401D0300CB20A3
:100DA000187006200880002010BC70472DE9F0471D
:100DB00096B004000D0000208DF808006068C0792E
:100DC000696808705FF00708606810F108096868D2
:100DD00010F1010A42464946504603F041F900200D
:100DE000696848726068C07BC0B2000910F00700F3
:100DF000012806D011D3032809D005D3042809D02F
:100E00000BE0012006000BE00220060008E00420B1
:100E1000060005E00820060002E02220696848720A
:100E20006068407C552806D06068407C992802D0D4
:100E30002220696848726868407A00280CD102ABA9
:100E40006068C07BC0F30212D2B2606810F1080182
:100E500006A804F0D9FD07009DF80800002815D168
:100E60006068C0799DF8191088420BD16068C07B1A
:100E70009DF82110884205D16068007C9DF8221001
:100E8000884206D021206968487202E02120696802
:100E900048726868407A002840F0898009A804F008
:100EA00007FA3A0092B209A9606805F034F88DF8A3
:100EB000080000234FF416720021DFF8800A006852
:100EC00001F038FB01286FD19DF8220000900099B5
:100ED0003000C0B200F00AFF6068C07B10F00F0065
:100EE000002853D15FF00708606810F108090DF180
:100EF000100A42464946504603F0B2F86068C0798D
:100F00008DF817006068407C552803D155208DF876
:100F10000C0002E099208DF80C000BA80190012034
:100F2000009003AB3200D2B204A94FF4BD5005F0DB
:100F300031FD8DF808004FF47A7003F0B2FB0BAB73
:100F40003200D2B204A941F6907005F0A8FC8DF8E9
:100F500008009DF80800002814D100206968487234
:100F60009DF83A0010F00300C0B2002802D001281A
:100F700004D00EE00320696808720AE00020696866
:100F8000087206E024206968487202E0222069683D
:100F9000487207F054FE002300220021DFF89C096C
:100FA000006801F0B6F902E02620696848720A205C
:100FB0002880002016B0BDE8F087000068A300205C
:100FC000ECA000208CDF000854A100202DE9F04F98
:100FD00087B004000D00002603A804F049FC002897
:100FE00013D0606800786968088060680078696874
:100FF00048800020696888806868801D0700CB20D1
:101000003870072028800020E4E02078102818D0CD
:10101000812806D0822808D083280AD084280CD0C2
:1010200013E0DFF8B80D804611E0DFF8B40D80461C
:101030000DE0DFF8B00D804609E0DFF8AC0D80462A
:1010400005E0DFF8280E804601E07820C2E0BDF818
:101050001600BDF8141008180F2190FBF1F0696814
:101060000880BDF81600BDF8141008180F2190FB79
:10107000F1F201FB1200002804D068680088401CCF
:101080006968088060680078696848800020A8F86E
:101090000000002069688880686880880E2880F2D7
:1010A0008680B8F80010481CA8F8000089B268468D
:1010B00004F04CFC0600F6B2002E6ED19DF8000044
:1010C000C0F38000C0B2002838D068686968898899
:1010D0001222514308449DF80A10817568686968B6
:1010E00089881222514308449DF8091041756868A7
:1010F000696889881222514308449DF801104173A0
:101100006868696889881222514308445521C1756D
:101110005FF007090DF1020A686869688988122280
:101120005143084410F10E0B4A465146584602F00E
:1011300097FF68688088401C696888809DF8000077
:10114000C0F3C000C0B2002827D0686869688988E9
:101150001222514308449DF80A1081756868696835
:1011600089881222514308449DF809104175686826
:10117000696889881222514308449DF8011041731F
:101180006868696889881222514308449921C175A9
:1011900068688088401C69688880B8F80000B0F5ED
:1011A000C87FFFF679AF6868C078696808706868BA
:1011B00069688988122251430844801D0700002075
:1011C0003870686880881221484328802888C01DAC
:1011D0002880002007B0BDE8F08F38B504000D006E
:1011E000DFF88C0C0078012803D1012069680870B1
:1011F00004E000F0EEFD00206968087001202880FE
:10120000002032BD2DE9F04F91B004000D00002602
:10121000684604F04DF8BDF80600B0F5FA6F06DD3B
:10122000BDF80600B0F5FA60ADF8060002E0002057
:10123000ADF8060002226868C11CBDF80600C0B205
:1012400002F0C6FF02226868011D9DF8050002F049
:10125000BFFF02226868411D9DF8040002F0B8FF3C
:1012600002226868811D9DF8020002F0B1FF02228F
:101270006868C11D9DF8010002F0AAFF022268689B
:1012800010F108019DF8000002F0A2FF03A804F08D
:10129000EFFA002813D06068007869680870606809
:1012A000007869684870002069688870686809304B
:1012B0000700CB2038700A20288000207FE12078AA
:1012C000102818D0812806D0822808D083280AD078
:1012D00084280CD013E0DFF89C0B804611E0DFF887
:1012E000980B80460DE0DFF8940B804609E0DFF8AC
:1012F000900B804605E0DFF88C0B804601E07820FB
:101300005DE1BDF80C00BDF80E100818BDF8101016
:101310000818BDF812100818029002981121B0FBAD
:10132000F1F06968087011200299029AB2FBF0F29C
:1013300000FB1210002804D068680078401C69681F
:101340000870686800786168097888420FD2606820
:10135000007869684870002069688870686809309A
:101360000700CB2038700A202880002027E1606821
:1013700000786968487068684078012802D10020C8
:10138000A8F80000002069688870686880781128D3
:1013900080F20281B8F800100EA804F0D7FA060017
:1013A000F6B2002E40F0E0805FF00A090DF1390A34
:1013B00068686968897811225143084410F1090B63
:1013C0004A465146584602F04BFEB8F8001006A8AF
:1013D00004F0ACFC0600F6B2002E77D168686968AC
:1013E00089781122514308449DF81910C174686826
:1013F000696889781122514308449DF81A100175D3
:101400006868696889781122514308449DF81B1067
:1014100041756868696889781122514308449DF8CC
:101420001C108175686869688978112251430844E5
:10143000BDF82110A0F81710686869688978112232
:10144000514308449DF8291041769DF81800C0F3D7
:101450004010C0B2002812D06868696889781122EB
:101460005143084469686A68927811235A431144C9
:10147000B1F8171051F00801A0F8171012E06868D1
:101480006968897811225143084469686A689278CA
:1014900011235A431144B1F817104FF6F772114057
:1014A000A0F81710686869688978112251430844C8
:1014B00069686A68927811235A431144B1F8171089
:1014C0004FF6EF721140A0F8171048E0686869689D
:1014D00089781122514308449DF81910C174686835
:1014E000696889781122514308449DF81A100175E2
:1014F0006868696889781122514308449DF81B1077
:1015000041756868696889781122514308449DF8DB
:101510001C108175686869688978112251430844F4
:10152000BDF82110A0F81710686869688978112241
:10153000514308449DF829104176686869688978A4
:1015400011225143084469686A68927811235A430A
:101550001144B1F8171051F01001A0F81710686885
:101560008078401C69688870B8F80000401CA8F8B2
:101570000000B8F80000B0F5C87F08DB6868407864
:10158000696808700120DFF81C1C087004E0002066
:10159000DFF8101C0870F8E668686968897811221D
:1015A000514308440930070000203870686880788B
:1015B00011214843288028880A302880002011B053
:1015C000BDE8F08F2DE9F04389B004000D0000263E
:1015D000684603F06DFEBDF8060030306968C870DB
:1015E0009DF80500696808719DF8040069684871F4
:1015F0009DF80200696888719DF801006968C871EA
:101600009DF800006968087202A804F031F900280A
:1016100014D060680078696808706068007869684C
:101620004870002069688870686809308046CB205F
:1016300088F800000A202880002074E02078102814
:1016400018D0812806D0822808D083280AD0842880
:101650000CD013E0DFF8500B814611E0DFF84C0BA3
:1016600081460DE0DFF8480B814609E0DFF8440BC6
:10167000814605E0DFF8400B814601E0782052E02A
:10168000BDF80800BDF80A100818BDF80C100818BD
:10169000BDF80E1008180700BFB2112097FBF0F03C
:1016A00069680870BFB2112097FBF0F100FB117060
:1016B000002804D068680078401C69680870606879
:1016C0000078696848700020A9F800000020696867
:1016D000887068688078112812DAB9F80010481C00
:1016E000A9F8000089B205A804F030F90600B9F89D
:1016F0000000B0F5C87FECDB686840786968087066
:101700006868696889781122514308440930804625
:10171000002088F8000068688078112148432880FC
:101720000A202880002009B0BDE8F0835CA10020D9
:101730008000080862A100202DE9F04393B0040066
:101740000D0000208DF800006068007AC0B200092A
:1017500010F00700012806D011D3032809D005D3C3
:10176000042809D00BE0012006000AE00220060050
:1017700007E00420060004E00820060001E06520E0
:10178000CFE000206968C881002069688872002065
:101790006968C87200206968087300206968487326
:1017A0000A27D4F80480D5F804903A004146484608
:1017B00002F056FC0020696808746B466068007A85
:1017C000C0F30212D2B26068411C03A804F01CF9F5
:1017D0009DF80000002840F09E80BDF81300ADF891
:1017E00009009DF80E008DF804009DF80F008DF89B
:1017F00005009DF810008DF806009DF811008DF889
:1018000007009DF812008DF808009DF80D008DF876
:101810000B0000234FF4167200214848006800F0C6
:1018200089FE012873D19DF81600069006993000B4
:10183000C0B200F05BFA9DF8150010F00F00002810
:101840005BD107AB3200D2B201A941F6907005F02E
:1018500026F88DF800009DF80000002835D1002002
:10186000696808749DF8160010F00700052810D16B
:101870009DF82D00696888729DF82C006968C8720F
:101880009DF82B00696808739DF82A006968487301
:1018900013E0BDF83B006968C8819DF82A006968BB
:1018A00088729DF82B006968C8729DF82C006968E1
:1018B00008739DF82D00696848736868C0894FF601
:1018C000F77108406968C88117E000206968C8811D
:1018D00000206968887200206968C8720020696801
:1018E00008730020696848736868C08950F0080070
:1018F0006968C88124206968087407F0A0F900238A
:10190000002200210D48006800F003FD06E02620BB
:101910006968087402E02120696808741120288031
:10192000002013B0BDE8F083D4A20020D6A200208E
:10193000D8A20020DAA20020DCA2002070A30020A0
:101940002DE9FF4704000D0000208DF800006068BD
:10195000C07AC0F30210C0B2012814D06068C07A07
:10196000C0F30210C0B202280DD06068C07AC0F384
:101970000210C0B2032806D06068C07AC0F302101B
:10198000C0B204281AD16B466068C07AC0F3021254
:10199000D2B26068011D01A804F036F89DF800007D
:1019A00000280ED10A260DF10507686810F1060817
:1019B00032003900404602F053FB02E065208DF80A
:1019C00000009DF80000002818D00A266068C71C97
:1019D000686810F1060832003900404602F040FB0A
:1019E0005FF006085FF00009D5F804A04A464146BA
:1019F000504603F009FFCF2069680874172028803B
:101A0000002004B0BDE8F0872DE9F04385B0040064
:101A10000D0000208DF800006068007AC0F302100D
:101A2000C0B2012814D06068007AC0F30210C0B2BE
:101A300002280DD06068007AC0F30210C0B20328FB
:101A400006D06068007AC0F30210C0B204280CD13E
:101A50006B466068007AC0F30212D2B26068411C23
:101A600001A803F0D1FF060006E06A466068411C49
:101A700001A803F0A6FF06009DF8000000281DD174
:101A80000A27606810F10A080DF105093A0041467D
:101A9000484602F0E5FA310089B201A803F0EEFFF2
:101AA0008DF800009DF80000002803D1002069682F
:101AB000087006E0EF206968087002E0012069689C
:101AC000087001202880002005B0BDE8F0832DE9D2
:101AD000F04F85B004000D0000265FF000080020E4
:101AE00069680870606800781A2880F28F806068E2
:101AF0000078002800F08A80002007003800616824
:101B00000978C0B288421CD25FF007096068FFB252
:101B10000A2101FB07F1084410F1020A6868FFB2CC
:101B200000EBC70010F1010B4A465146584602F03F
:101B300097FA6868FFB200EBC700012101727F1CB1
:101B4000DCE7686800786168097888423BD04146E4
:101B500089B201A803F0FAFE0600F6B2002E2BD1DE
:101B600000200700380061680978C0B2884223D29B
:101B700007226068FFB20A2101FB07F10844811CBB
:101B80000DF1060003F00EFE002813D168680078FE
:101B9000401C69680870404680B204F047F80600AF
:101BA000F6B2002E05D16868FFB200EBC700002135
:101BB000017201E07F1CD5E718F101081FFA88F8CF
:101BC000B8F5C87FBDDB6068007869680870686830
:101BD0006968097800EBC100401C00900020009962
:101BE000087000200700380069680978C0B2884290
:101BF00015D23800471C6968C0B201EBC000007AFA
:101C00000028F0D0012000990870ECE700206968F6
:101C100008706868401C009022200099087068686D
:101C20000078C000801C2880002005B0BDE8F08F3F
:101C3000FEB504000D000027002069680870BFB2DF
:101C4000B7F5C87F06DA380080B203F0EFFF060070
:101C50007F1CF4E70020ADF800000020ADF8020082
:101C60000020ADF804000020ADF806000020ADF81B
:101C700008000020ADF80A00684603F028FE0600C0
:101C8000F6B2002E02D00120696808700120288079
:101C90000020FEBD2DE9F04182B004000D000026B9
:101CA0002800FEF758FA687B80465FEA0828287B00
:101CB00010EB080818F11008002007000020009021
:101CC00000232200D2B21FFA88F84146280007F00C
:101CD00055F90600F6B2002E04D03800471CC0B2F9
:101CE0000328EBDB3000C0B2BDE8F6812DE9F341FB
:101CF000040000259DF8040010F0070000280BD018
:101D0000022811D00CD3042816D011D306281BD0DA
:101D100016D307281CD01FE04FF4966006001DE084
:101D20004FF41660060019E04FF49650060015E0D7
:101D30004FF41650060011E04FF4964006000DE0F7
:101D40004FF41660060009E04FF46140060005E01C
:101D50005FF4E130060001E0652038E09DF8040002
:101D6000C0B28009002803D0022808D003D30AE0BB
:101D70000020070009E04FF48060070005E04FF401
:101D8000C060070001E0652021E09DF80400C0B2BA
:101D9000400910F00100002802D0012803D006E01D
:101DA0000020804605E04FF40050804601E06520A9
:101DB0000DE00220009043461BB23A0012B23100FF
:101DC0002000C0B207F04EF805002800C0B2BDE800
:101DD000F68101202649087000207047C8A2002023
:101DE000CAA20020CCA20020CEA200202DE9F04102
:101DF00004000D0000262000C0B2FEF7DDF9804689
:101E0000B8F1000F01D167202DE0212088F80D00E6
:101E1000287888F81000B5F80100A8F81100032010
:101E20000700DFF898030078BFB208EB07010874D9
:101E3000DFF888030078401CDFF8801308707F1CEF
:101E4000380080B2000A88F80F0088F80E7018F188
:101E500002012000C0B2FFF71DFF06004046FEF75A
:101E6000E5F93000C0B2BDE8F0810000D0A200204A
:101E7000D8A30020E0A20020E2A20020E4A20020DB
:101E8000E6A20020E8A2002070B59AB00024002548
:101E9000DFF82C030078012840F05A81002005006B
:101EA0004FF48070DFF81C130880290089B20AA85B
:101EB00003F04CFD0400E4B2002C40F03E81BDF87C
:101EC0002F00ADF825009DF82A008DF820009DF820
:101ED0002B008DF821009DF82C008DF822009DF834
:101EE0002D008DF823009DF82E008DF824009DF81C
:101EF00029008DF827009DF83100C0B2000910F0CC
:101F00000700012806D011D3032809D005D30428DF
:101F100009D00BE00120060009E00220060006E0DF
:101F20000420060003E00820060000E005E100238D
:101F300040F6B8320021DFF89002006800F0FAFAAB
:101F4000012819D19DF832000D900D993000C0B2D2
:101F5000FFF7CCFE04000EAB3200D2B208A941F666
:101F6000907004F09CFC0400002300220021DFF8A4
:101F70005802006800F0CDF901A803F099F9BDF806
:101F80000A00B0F5FA6F06DDBDF80A00B0F5FA6098
:101F9000ADF80A0002E00020ADF80A0002220DF1BF
:101FA0001601BDF80A00C0B202F012F902220DF1CA
:101FB00017019DF8090002F00BF9022206A99DF80D
:101FC000080002F005F902220DF119019DF8060042
:101FD00002F0FEF802220DF11A019DF8050002F050
:101FE000F7F802220DF11B019DF8040002F0F0F851
:101FF00000208DF80000E4B2002C40F08A804FF4FD
:102000008070724908809DF8000050F002008DF841
:1020100000009DF8320010F00700052810D19DF84F
:1020200049008DF80C009DF848008DF80D009DF8D2
:1020300047008DF80E009DF846008DF80F000FE068
:102040009DF846008DF80C009DF847008DF80D00B6
:102050009DF848008DF80E009DF849008DF80F009E
:10206000BDF85700ADF814009DF808005849C97A2A
:1020700088422CD19DF8000050F004008DF800003B
:102080009DF8320010F00700052810D19DF8490096
:102090008DF810009DF848008DF811009DF847005C
:1020A0008DF812009DF846008DF813000FE09DF8A2
:1020B00046008DF810009DF847008DF811009DF83E
:1020C00048008DF812009DF849008DF813000EAB02
:1020D0003200D2B208A940F6810004F0E0FB04000F
:1020E000E4B2002C0BD19DF946008DF81C00BDF820
:1020F00014004FF6DF710840ADF8140014E0002022
:102100008DF81C00BDF8140050F02000ADF814004C
:102110000AE006F094FD502002F0C3FA9DF800009A
:1021200050F020008DF800002A0092B203A9009818
:1021300003F040FE142002F0B4FA6D1CADB2B5F508
:10214000C87FFFF6ADAE06F07AFD03201C4908708B
:102150001AB070BD2DE9F04188B000240025684612
:102160001C49202201F08CFF07261B4F0DF10608A9
:1021700032003900404601F073FFE4B20E2C06DA5B
:102180006846E4B2204400794519641CF5E78DF8EF
:102190001250812214216846FEF733F908B0BDE8D9
:1021A000F081000026000020ECA20020EEA200201A
:1021B000F0A20020F2A20020F4A2002027000020BC
:1021C000D8A300201808024070A30020280802406D
:1021D00054A1002034DD000855A1002070B5040092
:1021E0000D002600002E02D107F0B9F9FEE707F036
:1021F00048FA3068F16B326C51430844706000203B
:10220000B0633068B0603068F16B491E326C514386
:102210000844F0605FF0FF3070645FF0FF30B0643E
:10222000002D0BD13069002810D016F1100002F0FB
:1022300062FC01280AD107F01BFA07E016F1100032
:1022400007F09AFA16F1240007F096FA07F031FA2F
:10225000012070BD2DE9F84304000D0016005FF069
:102260000009002C02D107F07AF9FEE7002D02D117
:102270000020804603E005FB04F0401C804618F176
:102280004C0007F0C9FA0700002F0DD0002D01D136
:102290003F6002E017F14C003860FC633D640121AF
:1022A0003800FFF79BFFB946B9F1000F02D107F0E4
:1022B00056F9FEE74846BDE8F28338B504004C20E5
:1022C00007F0AAFA0500002D21D000206860002048
:1022D00028600020A8600020E8600020A86301209A
:1022E000E863002028645FF0FF3068645FF0FF302F
:1022F000A86415F1100007F03FFA15F1240007F06B
:102300003BFA002300220021280000F002F82800F8
:1023100032BD2DE9F74304000D001E005FF00008F8
:10232000A146B9F1000F02D107F019F9FEE7002D1F
:1023300003D1D9F84000002801D1012000E000209D
:10234000C0B2002802D107F00AF9FEE7022E03D13D
:10235000D9F83C00012801D1012000E00020C0B2E2
:10236000002802D107F0FBF8FEE702F06BFD002821
:1023700002D10298002801D1012000E00020C0B263
:10238000002802D107F0EBF8FEE707F07AF9D9F858
:102390003800D9F83C10884201D3022E1AD13200FD
:1023A0002900484600F088F90700D9F824000028E1
:1023B00008D019F1240002F09EFB012806D107F095
:1023C00057F903E0002F01D007F052F907F071F937
:1023D00001204CE00298002803D107F06AF90020A0
:1023E00045E0B8F1000F04D1684602F0C9FB0120B6
:1023F000804607F05EF902F0BBF907F042F9D9F820
:10240000440010F1010F02D10020C9F84400D9F8AE
:10241000480010F1010F02D10020C9F8480007F070
:1024200048F902A9684602F0C1FB002819D14846C4
:1024300000F0EDF900280ED0029919F1100002F019
:10244000EEFA484600F09EF902F09AF900289CD175
:1024500007F00EF999E7484600F094F902F090F978
:1024600093E7484600F08EF902F08AF90020BDE8B3
:10247000FE832DE9F04704000D0016001F00A24660
:10248000BAF1000F02D107F06AF8FEE7002D03D180
:10249000DAF84000002801D1012000E00020C0B29D
:1024A000002802D107F05BF8FEE7022F03D1DAF82B
:1024B0003C00012801D1012000E00020C0B200282A
:1024C00002D107F04CF8FEE707F018F907F047F8DB
:1024D0008146DAF83800DAF83C10884201D3022F3E
:1024E00020D13A002900504600F0E6F8DAF848001A
:1024F00010F1010F0ED1DAF8240000280FD01AF1E4
:10250000240002F0F8FA002809D0002E07D001209C
:10251000306004E0DAF84800401CCAF848000120A6
:10252000804601E000208046484607F01FF84046FC
:10253000BDE8F0872DE9F74304000D001E000027D9
:10254000A146B9F1000F02D107F009F8FEE7002D0E
:1025500003D1D9F84000002801D1012000E000207B
:10256000C0B2002802D106F0FAFFFEE702F06AFCD2
:10257000002802D10298002801D1012000E00020AB
:10258000C0B2002802D106F0EAFFFEE707F079F8B2
:10259000D9F83800002834D0D9F80C00804629003A
:1025A000484600F0D7F8002E19D1D9F83800401E5F
:1025B000C9F83800D9F80000002803D102F000FD66
:1025C000C9F80400D9F81000002816D019F110003D
:1025D00002F091FA012810D107F04AF80DE0C9F88D
:1025E0000C80D9F82400002807D019F1240002F04B
:1025F00082FA002801D007F03BF807F05AF80120D2
:1026000058E00298002803D107F053F8002051E069
:10261000002F04D1684602F0B3FA0120070007F04A
:1026200048F802F0A5F807F02CF8D9F8440010F1AA
:10263000010F02D10020C9F84400D9F8480010F178
:10264000010F02D10020C9F8480007F032F802A9B2
:10265000684602F0ABFA002826D1484600F0C7F8D9
:1026600000281BD0D9F80000002807D107F009F88E
:10267000D9F8040002F0F9FB07F01BF8029919F1F0
:10268000240002F0CCF9484600F07CF802F078F81B
:1026900000287FF47BAF06F0EBFF77E7484600F0B9
:1026A00071F802F06DF871E7484600F06BF802F03F
:1026B00067F80020BDE8FE832DE9F84304000D0013
:1026C00016000027206C002809D1206800283BD183
:1026D000606802F023FC07000020606034E0002EF8
:1026E00013D1D4F84080D4F80890424629004846D7
:1026F00001F0B6FCA068216C0844A060A068616885
:10270000884221D32068A0601EE0D4F84080D4F82D
:102710000C9042462900484601F0A2FCE068216C7A
:1027200049420844E060E0682168884204D2606859
:10273000216C49420844E060022E05D1A06B0028BC
:1027400002D0A06B401EA063A06B401CA0633800A9
:10275000BDE8F283F8B504000D00206C002810D00D
:10276000E068216C0844E060E0686168884201D359
:102770002068E060266CE76832003900280001F02C
:102780006FFCF1BD10B5040006F07BFFA06C0128C2
:102790000EDB606A00280BD014F1240002F0ABF9C4
:1027A000002801D002F03CFAA06C401EA064EDE7C6
:1027B0005FF0FF30A06406F07CFF06F062FF606C03
:1027C00001280EDB206900280BD014F1100002F064
:1027D00092F9002801D002F023FA606C401E606478
:1027E000EDE75FF0FF30606406F063FF10BD38B5C1
:1027F000040006F046FFA06B002802D1012005006E
:1028000001E00020050006F054FF280032BD38B575
:10281000040006F036FFA06BE16B884202D1012074
:10282000050001E00020050006F043FF280032BD4E
:1028300038B50400002C02D106F091FEFEE7A06B33
:10284000E16B884202D10120050001E00020050073
:10285000280032BDF8B504000D001600270006F070
:1028600010FF786C10F1010F01D100207864B86C72
:1028700010F1010F01D10020B86406F01AFFB86B07
:10288000002805D13200290017F1240002F0FDF8DC
:102890003800FFF777FFF1BDF8B50027C8212020E9
:1028A00007F02AFBDFF87019202006F0ADF90023AD
:1028B000C822DFF84015DFF840050068FFF73AFE50
:1028C000012802D03800C0B2A4E04FF48052DFF8F3
:1028D0000C16DFF82005006804F0F6FBDFF81C1585
:1028E00008600020DFF8F415DFF81025126888541E
:1028F000002006006A46DFF82419DFF8E0053044BE
:1029000001F09EFD002804D00098801D861901204A
:1029100007006A46DFF80819DFF8C005304401F007
:102920008FFD00285DD00098001D8619002004004E
:10293000002005006946DFF8A405304401F045FD9C
:10294000009886190098DFF8B4140968884212D2FA
:10295000DFF88805805D30280DDBDFF88005805DBD
:102960003A2808DA0A204443DFF87005805D3038E1
:102970000419761CE6E76946DFF86005304401F08B
:1029800024FD009886190098DFF8701409688842C1
:1029900012D2DFF84805805D30280DDBDFF83C05FA
:1029A000805D3A2808DA0A204543DFF83005805D6B
:1029B00030384519761CE6E76A4617A1DFF81C0592
:1029C000304401F03DFD002808D002200700DFF868
:1029D0005408C572DFF84C08847211E00320070028
:1029E0000EE06A46DFF81814DFF8F004304401F016
:1029F00027FD002804D00098401D861903200700F9
:102A0000FFB2022F02D0FFB2032F02D13800C0B2B2
:102A100000E04CE7F2BD00004F4B0000F8B50400A9
:102A20000D000027C821202007F066FADFF8F8170C
:102A3000202006F0E9F80023C822DFF8B813DFF8F9
:102A4000B8030068FFF776FD012802D03800C0B255
:102A5000A6E04FF48052DFF88414DFF89803006892
:102A600004F032FBDFF8941308600020DFF86C14E8
:102A7000DFF8882312688854002006006A46DFF8D1
:102A8000F019DFF85804304401F0DAFC002804D0D3
:102A9000009808308619012007006A46DFF8D4192B
:102AA000DFF83804304401F0CBFC00285FD00098F8
:102AB000401D861900202070002028706946DFF82C
:102AC0001C04304401F081FC009886190098DFF85E
:102AD0002C130968884216D2DFF80004805D302884
:102AE00011DBDFF8F803805D3A280CDA20780A2140
:102AF000484320702078DFF8E413895D30390818E6
:102B00002070761CE2E76946DFF8D003304401F01C
:102B10005CFC009886190098DFF8E012096888428A
:102B200016D2DFF8B803805D302811DBDFF8AC0384
:102B3000805D3A280CDA28780A21484328702878E2
:102B4000DFF89813895D303908182870761CE2E7A1
:102B50006A4648A1DFF88403304401F071FC002884
:102B600002D00220070011E0032007000EE06A46B1
:102B7000DFF88C12DFF86403304401F061FC0028B8
:102B800004D00098401D861903200700FFB2022FD1
:102B900002D0FFB2032F02D13800C0B200E04AE7F2
:102BA000F2BD70B582B004000026C821202007F0D5
:102BB000A3F90020C9490870DFF8801BC74807F057
:102BC000B2F9210007F0AFF989A1C44807F0ABF9C9
:102BD0000100202006F018F80023C8228549864805
:102BE0000068FFF7A7FC012802D03000C0B240E027
:102BF0004FF48052B9497F48006804F065FA7F4974
:102C000008600020B5497D4A1268885400200500FC
:102C10006A46DFF8281BB148284401F011FC00285F
:102C200004D0009808304519012006006A4611A119
:102C3000AA48284401F004FC002804D00098451953
:102C4000022006000BE06A466D49A448284401F0C2
:102C5000F7FB002803D00098451903200600F6B2C0
:102C6000022E02D0F6B2032E02D13000C0B200E034
:102C7000B2E776BD4F4B000038B50025C8212020B3
:102C800007F03AF9DFF8BC1B202005F0BDFF002358
:102C90004FF41672574958480068FFF74BFC01285B
:102CA00002D02800C0B23FE04FF480528B49514817
:102CB000006804F009FA51490860002087494F4A2A
:102CC00012688854002004006A46DFF8B01B83486D
:102CD000204401F0B5FB002803D00098041901201E
:102CE00005006A467CA17D48204401F0A9FB00282C
:102CF00004D000980419022005000BE06A46404900
:102D00007648204401F09CFB002803D00098041969
:102D100003200500EDB2022D02D0EDB2032D02D149
:102D20002800C0B200E0B2E732BD70B582B0040046
:102D30000026C821202007F0DFF8002C05D0DFF89E
:102D4000401B202005F060FF04E0DFF8381B202046
:102D500005F05AFF00234FF4967226492648006872
:102D6000FFF7E8FB012802D03000C0B23FE04FF48B
:102D700080525A491F48006804F0A6F91F490860AC
:102D8000002056491D4A12688854002005006A46F2
:102D9000DFF8241C5148284401F052FB002803D0DE
:102DA00000984519012006006A464BA14B4828446B
:102DB00001F046FB002804D00098451902200600C7
:102DC0000BE06A460E494548284401F039FB0028CB
:102DD00003D00098451903200600F6B2022E02D057
:102DE000F6B2032E02D13000C0B200E0B2E776BDE9
:102DF0000D0A00002CA3002060A3002028A30020BF
:102E00005CDF000870B582B004000026C8212020D5
:102E100007F072F8DFF8A41B202005F0F5FE002370
:102E2000C822DFF8881CDFF8880C0068FFF782FBF7
:102E3000012802D03000C0B24CE04FF48052274944
:102E4000DFF8680C006804F03FF9DFF8681C0860E0
:102E500000202249DFF85C2C12688854002005000D
:102E60006A46DFF8541C1D48284401F0E9FA00289E
:102E700019D00098451901200600694617482844D2
:102E800001F0A3FA00281BD000984519210013482F
:102E9000284401F0A2F8002802D0022006000FE02A
:102EA000032006000CE06A46DFF8101C0B4828449B
:102EB00001F0C6FA002803D0009845190320060047
:102EC000F6B2022E02D0F6B2032E02D13000C0B20A
:102ED00000E0A4E776BD00004F4B000038800020E2
:102EE0002DE9FC4704000D0016001F005FF00008EC
:102EF000E4B2052C01DB00208BE10020DFF8041D8B
:102F00000870DFF8BC1BDFF8FC0C01F03CFA8246CD
:102F100014F130008AF800001AF1010A00208AF842
:102F20000000DFF8A01BDFF8DC0C01F02CFA824671
:102F30005146280000F0FEFF824622208AF8000059
:102F40001AF1010A2C208AF800001AF1010A222045
:102F50008AF800001AF1010ADFF8A80CBAEB0000A9
:102F6000DFF8501B0860DFF89C0CDFF8481B09688D
:102F70000144B6B2300001F0ACF9DFF8381B096843
:102F8000C0B24018DFF82C1B08602220DFF8741C48
:102F9000DFF8202B12688854DFF8180B0068401CFB
:102FA000DFF8101B08600D20DFF8581CDFF8042B39
:102FB00012688854DFF8FC0A0068401CDFF8F41A35
:102FC00008600A20DFF83C1CDFF8E82A1268885401
:102FD000DFF8E00A0068401CDFF8D81A0860C82152
:102FE000202006F089FF002000900023DFF8C40AAB
:102FF000026892B2DFF80C1C202005F033FD00239C
:1030000042F6E062DFF8A41ADFF8A40A0068FFF7CE
:1030100091FA012802D04046C0B2FAE04FF4805243
:10302000DFF8E01BDFF8840A006804F04DF8DFF8F1
:10303000841A08600020DFF8CC1BDFF8782A1268B9
:1030400088540020814601AADFF8BC1BDFF8B40BCE
:10305000484401F0F5F9002804D0019810EB090963
:103060000120804601AADFF8A41BDFF8980B484432
:1030700001F0E6F9002849D001A9DFF8880B48449F
:1030800001F0A3F9002800F0B680DFF8780B019971
:10309000405CE4B214F13001884234D10120387030
:1030A0006048E4B20C2101FB04F1084445615D482D
:1030B000E4B20C2101FB04F1084406835948E4B250
:1030C0000C2101FB04F10844007C10F0FC0050F0DE
:1030D00001005449E4B20C2202FB04F211440874CA
:1030E0005048E4B20C2101FB04F10844007C50F08C
:1030F00001004C49E4B20C2202FB04F211440874B2
:103100000220804677E00320804674E001AADFF8C1
:10311000AC1BDFF8F00A484401F092F9002818D0FF
:1031200001A9DFF8E00A484401F04FF9002862D015
:10313000DFF8D00A0199405CE4B214F13001884212
:1031400004D1002038700220804654E003208046DD
:1031500051E001AADFF8281CDFF8A80A484401F072
:103160006FF9002818D001A9DFF8980A484401F047
:103170002CF900283FD0DFF88C0A0199405CE4B2BA
:1031800014F13001884204D10220387002208046B8
:1031900031E0032080462EE001AADFF8E81BDFF8CB
:1031A000640A484401F04CF9002818D002208046F7
:1031B00003203870019810EB090901A9DFF8440ACF
:1031C000484401F002F9002815D0019810EB0909D4
:1031D000DFF8300A484401F0BEF878800BE001AA1D
:1031E000DFF8D818DFF81C0A484401F029F9002854
:1031F00001D0032080465FFA88F8B8F1020F04D0AE
:103200005FFA88F8B8F1030F02D14046C0B200E07F
:10321000F5E6BDE8F687000030DE000864DF000850
:103220006CDF0008ECA000203CDE00082DE9FC4724
:1032300004000D00160000275FF0000AE4B2072C1E
:1032400001DB002012E1C821202006F055FE0020FD
:10325000DFF8841C0870DFF8301BDFF87C0C01F00D
:1032600092F8814614F1300089F8000019F1010943
:103270002C2089F8000019F101094946B6B2300046
:1032800001F049F881460D2089F8000019F1010983
:103290000A2089F8000019F10109002089F80000CE
:1032A000DFF8341C202005F0AFFC00234FF4FA7245
:1032B000DFF8F817DFF8F8070068FFF73BF9012897
:1032C0001DD0FFB2002F02D13800C0B2CEE05FFAAD
:1032D0008AFABAF1000F0FD1C821202006F00CFEA7
:1032E000002000900023320092B22900202005F037
:1032F000B9FB01208246B8E03800C0B2B6E04FF416
:103300008052DFF8D41BDFF8A407006803F0DCFE6E
:10331000DFF8A01708600020DFF8BC1BDFF8942757
:10332000126888540020804601AADFF85C1ADFF892
:10333000A80B404401F084F8002804D0019810EB59
:1033400008080120070001AA9BA1DFF88C0B40446C
:1033500001F076F8002811D001200700C8212020B4
:1033600006F0CAFD002000900023320092B229002E
:10337000202005F077FB012082466DE001AADFF8EE
:103380005C1BDFF8540B404401F05AF8002816D0BB
:1033900001A9DFF8440B404401F017F800285BD086
:1033A000DFF8340B0199405CE4B214F1300188423B
:1033B00002D1022007004FE0032007004CE001AAE1
:1033C000DFF81C1BDFF8100B404401F039F800282F
:1033D00002D0032007003FE001AADFF8081BDFF856
:1033E000F80A404401F02CF8002819D0019810EB9D
:1033F000080801A9DFF8E00A404400F0E6FF0028D1
:103400002AD0DFF8D40A0199405CE4B214F130010B
:10341000884202D1022007001EE0032007001BE0C3
:1034200001AADFF86019DFF8B00A404401F008F89B
:10343000002805D002200700019810EB08080BE0D7
:1034400001AADFF87816DFF8900A404400F0F8FF90
:10345000002801D003200700FFB2022F02D0FFB2E4
:10346000032F02D13800C0B200E01EE7BDE8F687A6
:1034700048DE000874DF000870B582B00400002642
:10348000E4B2072C01DB002094E0E4B22200DFF874
:10349000581ADFF8440A06F055FDC821202006F02E
:1034A0002BFDDFF8341A202005F0AEFB00234FF48B
:1034B0007A62DFF8F815DFF8F8050068FFF73AF8E8
:1034C00001280BD0F6B2012E05D12000C0B200F0C9
:1034D000ABF8022006003000C0B26BE04FF480521F
:1034E000DFF8F419DFF8C405006803F0EDFDDFF83C
:1034F000C41508600020DFF8E019DFF8B82512686D
:103500008854002005006A46DFF8E019DFF8C80992
:10351000284400F095FF002812D000980C3045197F
:10352000DFF8B409405D30280ADBDFF8AC09405D04
:10353000303800900098E4B2A04201D1012006008A
:103540006A46DFF8AC19DFF89009284400F078FFEC
:10355000002819D06946DFF88009284400F035FFBB
:10356000002811D0DFF870090099405CE4B214F132
:103570003001884206D12000C0B200F055F8022088
:10358000060001E0032006006A46DFF83015DFF888
:103590004809284400F054FF002801D00320060009
:1035A000F6B2022E02D0F6B2032E02D13000C0B223
:1035B00000E07BE776BD00003E00000038B5002546
:1035C0006D1CADA1202005F01FFB00230A226946D7
:1035D000DFF8DC040068FEF7ADFF01281FD1DFF83B
:1035E000D4040268DFF8F018009803F06DFDDFF8EE
:1035F000C414086000200400DFF8B80400688442A6
:103600000DD22000441CDFF8D018085C4128F3D10B
:10361000DFF8C408005D5428EED1012002E0642DDB
:10362000CED3032032BD000010B481214118002206
:10363000DFF8C038C0B20C2404FB00F423445A6104
:103640000022DFF8B038C0B20C2404FB00F423449D
:103650001A83DFF8A028C0B20C2303FB00F31A443E
:10366000127C12F0FC02DFF88C38C0B20C2404FB90
:1036700000F423441A74DFF87C28C0B20C2303FB47
:1036800000F31A44127C12F0FE02DFF86838C0B270
:103690000C2404FB00F423441A740A00DFF85838A1
:1036A0005B78D2B29A420FD10022DFF84C385A70C0
:1036B000DFF84428127812F0FE02DFF83C381A7066
:1036C0000022DFF834389A700A00DFF82C381B79B2
:1036D000D2B29A420FD10022DFF81C381A71DFF8FB
:1036E0001828D27812F0FE02DFF80C38DA700022C7
:1036F000DFF804385A7110BC7047F8B504000D00AB
:1037000016008127E7193800DFF8EC174978C0B2B6
:10371000884205D1320092B22900002005F074FEE3
:103720003800DFF8D4170979C0B2884205D13200D9
:1037300092B22900012005F067FEF1BD54DE0008B9
:103740002DE9F0410400DFF8B417200006F014FC66
:103750000700002F31D03E002C21380006F014FC69
:103760000700002F29D07F1C380006F018FC050048
:103770002C21380006F008FC0700002F1DD07F1C0C
:10378000380006F00CFC8046B8F1000F15D03A2145
:10379000380006F0F9FB0700FF1C002F0DD0424651
:1037A00039002800C0B2FFF7A8FF17EB0800B0EB04
:1037B00006084146300000F01AFEDFF844172000EA
:1037C00006F0DAFB0700002F13D07F1EA74210D3AC
:1037D00038783028F9DB38783A28F6DA3878303813
:1037E00005002800C0B2FFF71FFF0D21380000F0D0
:1037F000FEFDBDE8F08100B583B00121042006F094
:10380000F4FC0420DFF8FC1608804020DFF8F416F2
:1038100008808020DFF8EC1608804FF403500090F9
:1038200001208DF8040003208DF8050000208DF89C
:10383000060000208DF807006946DFF8CC0606F088
:1038400069FD07BD60DE00080021C9B2062910DA53
:10385000DFF8A006C9B20C2202FB01F21044007C82
:1038600010F00100002802D10800C0B202E0491C9B
:10387000EBE7FF2070470000415400006CDE0008B9
:10388000C0DD0008D0DD0008F8B50400E4B2002C6B
:1038900004D0E4B2012C01D000208BE00020050010
:1038A00000200700EDB2042D08DA3F02DFF85C06C5
:1038B000EDB22844C07B07436D1CF3E7DFF84C06EC
:1038C000007D06003602DFF84406C07C8619002F12
:1038D00002D0B6B2002E01D100206BE000230022FE
:1038E0000021DFF82C060068FEF724FE012860D1D5
:1038F000FFF7AAFF05006B46320092B2390028009C
:10390000C0B2FFF7EDFA9DF80000012843D18120F5
:10391000DFF8E415E4B2032202FB04F2114448701C
:10392000DFF8D405E4B2032101FB04F10844407838
:103930002818DFF8C415E4B2032202FB04F2114494
:103940004870DFF8B405E4B2032101FB04F1405CE8
:1039500050F00100DFF8A015E4B2032202FB04F2EC
:103960008854DFF89405E4B2032101FB04F1405CC4
:1039700010F0FB00DFF88015E4B2032202FB04F232
:103980008854002300220021DFF884050068FEF738
:10399000C0FC01200EE02800C0B2FFF76DFD00233F
:1039A00000220021DFF868050068FEF7B2FC002065
:1039B00000E00020F2BD000078DE000884DE000890
:1039C00010B50400DFF83005E4B2032101FB04F177
:1039D00008444078812827D0DFF81C05E4B2032191
:1039E00001FB04F10844407882281DD0DFF8080567
:1039F000E4B2032101FB04F108444078832813D08A
:103A0000DFF8F404E4B2032101FB04F10844407838
:103A1000842809D0DFF8E004E4B2032101FB04F1BB
:103A200008444078852840D100234FF47A72002161
:103A3000DFF8DC040068FEF77DFD012835D1DFF8F2
:103A4000B804E4B2032101FB04F1084440787F305C
:103A5000C0B2FFF711FDDFF8A004E4B2032101FBBF
:103A600004F1405C10F0FE00DFF88C14E4B2032295
:103A700002FB04F288540020DFF87C14E4B2032235
:103A800002FB04F2114448700020DFF86C14E4B229
:103A9000032202FB04F2114488700023002200215B
:103AA000DFF86C040068FEF734FC10BD2CA3002086
:103AB00060A3002028A3002090DE00085CDF00083F
:103AC000E0DD00089CDE000810B582B00024FFF79E
:103AD00075FD012801D0002093E0642000F0E1FD95
:103AE000002004002000441CC0B21E280BDAFEF7A0
:103AF000D3FE022807D0322000F0D3FDE4B20B2C15
:103B0000F0DB00207DE0642000F0CBFD002004000D
:103B10002000441CC0B21E280EDA69460DF10100D7
:103B2000FEF77CFF022807D0322000F0BAFDE4B295
:103B30000B2CEDDB002064E0642000F0B2FD0020DF
:103B400004002000441CC0B21E280CDA0120FFF73C
:103B5000ECF8022807D0322000F0A3FDE4B20B2CD1
:103B6000EFDB00204DE0642000F09BFDDFF89C03BC
:103B7000807BC0F34000C0B2002814D000200400B5
:103B80002000441CC0B21E280DDADFF88803FFF7BE
:103B900008F8022807D0322000F083FDE4B20B2C95
:103BA000EEDB00202DE0642000F07BFD002004000F
:103BB0002000441CC0B21E280BDAFFF75DF8022873
:103BC00007D0642000F06DFDE4B20B2CF0DB002088
:103BD00017E0642000F065FD002004002000441C74
:103BE000C0B21E280CDACC48FFF70CF9022807D027
:103BF000322000F056FDE4B20B2CEFDB002000E099
:103C0000012016BD3880002098DD0008A8DE0008DD
:103C100038B50025B7480400EDB2062D10DAB548D6
:103C2000EDB20C2101FB05F10844007C10F001000D
:103C3000002803D02800C0B2FFF71EFC6D1CEBE784
:103C400000200500EDB2682D04D20020EDB26055D1
:103C50006D1CF7E7A848007810F0FD00A649087031
:103C6000A548007810F0FE00A3490870A24800782B
:103C700010F0FB00A049087000209F4988700020C8
:103C80009D4948709C48C07810F0FD009A49C87062
:103C90009948C07810F0FE009749C8709648C078DF
:103CA00010F0FB009449C87000209349487100202F
:103CB0009149087104209349088031BDF0DD000866
:103CC00080B54FF400709549088000215FF4802092
:103CD00006F0A9FAFFF79CFF40F6B83000F0E1FCCF
:103CE000FFF789FD80208749088004208B490880E0
:103CF000642000F0D6FC802088490880822000F0F3
:103D0000D0FC80207F4908807A48007850F001007C
:103D1000784908704FF4FA6000F0C3FC022000906C
:103D20004FF4005300224FF41641202004F00EF906
:103D30004FF4007073490880FFF7C6FE002807D0D3
:103D40006C48007850F002006A490870012016E0C3
:103D50004FF400707149088071480078411C704A26
:103D60001170C0B20B2803DB4FF6FF706D4908805D
:103D70006048007810F0FD005E490870002002BD28
:103D800000DE0008B4DE0008C0DE000810B5040044
:103D900058480078C0F34000C0B2002802D1FFF7B5
:103DA0008FFF50E054480078C0F3C000C0B2002834
:103DB00017D05148C078C0F3C000C0B2002810D05E
:103DC0004D480078C0F38000C0B200283BD04A487C
:103DD000C078C0F38000C0B2002834D0FFF770FF75
:103DE00031E045480078C0F3C000C0B2002810D0D0
:103DF0004148C078C0F3C000C0B2002809D13E4895
:103E00000078C0F38000C0B200281CD0FFF758FF34
:103E100019E039480078C0F3C000C0B2002810D1C2
:103E20003548C078C0F3C000C0B2002809D032487D
:103E3000C078C0F38000C0B2002804D0FFF740FF74
:103E400001E0FFF7E5FE0023C82237493748006844
:103E5000FEF770FB012808D14FF480521E4932480A
:103E6000006803F031F93249086000202D490880CC
:103E70008EE7F8B504000D0016001E48E4B20C21D0
:103E800001FB04F10844007C10F00100002801D17E
:103E9000712020E000234FF4967200211C48006836
:103EA000FEF748FB012815D1320092B2290020000C
:103EB000C0B2FFF7BBF9070000230022002114481D
:103EC0000068FEF726FAFFB2022F01D1002002E0BF
:103ED0007E2000E06620F2BD388000207CDF0008F4
:103EE000CCDE0008D8DE0008ACDD000810DE0008DB
:103EF000E4DE0008ECA0002000A30020F0DE0008B3
:103F0000FCDE0008280802400008024054A10020FE
:103F100068A3002069A10020F8A000201808024032
:103F200024000020CCA300202CA3002060A30020AC
:103F300028A3002038B402000800002423001C003D
:103F4000631CE4B2042C43DA140E21001202C9B23D
:103F50000A2491FBF4F504FB15148DF80040C9B256
:103F60000A2491FBF4F1C9B20A2491FBF4F504FB95
:103F700015148DF80140C9B20A2491FBF4F1C9B2BD
:103F80000A2491FBF4F504FB15148DF802409DF80A
:103F90000240002C0AD09DF8024030340470401CCE
:103FA0009DF8014030340470401C08E09DF8014049
:103FB000002C04D09DF8014030340470401C9DF862
:103FC000004030340470401C2E240470401CB6E7BE
:103FD000401E0024047032BC704770B402000026FA
:103FE0000020086000200300002004003000461C70
:103FF000C0B2042825DA00200500DBB2D05C3028EE
:104000000FDBDBB2D05C3A280BDA6D1CEDB2042D6D
:1040100007DA0A204443DBB2D05C303804195B1C59
:10402000EBE71800431CC0B2105C2E2809D10868C9
:10403000000208600868E4B220180860002004004C
:10404000D4E7F6B2042E01DA002007E00868000287
:1040500008600868E4B220180860012070BC70474E
:1040600062B38B0708D0521E11F8013B00F8013BE8
:1040700000F024808B07F6D1830740F0208000BF3A
:10408000103A07D330B4B1E83810103AA0E838102D
:10409000F9D230BC530724BFB1E80810A0E80810DB
:1040A00044BF51F8043B40F8043BD20724BF31F829
:1040B000022B20F8022B44BF0B7803707047083A9C
:1040C00007D3B1E80810083A40F8043B40F804CBA5
:1040D000F7D25307E4E70268531C0360117070477E
:1040E00030B40200FF20FF230D00691EEDB2002D49
:1040F0000DD0157845402C00521C084DE4B22D5DC2
:104100005D402800064DE4B22D5D2B00ECE7C0B207
:10411000DBB253EA002080B230BC7047E0D900081F
:10412000E0DA000810B40200C9B2022924D192B228
:10413000042392FBF3F403FB1423002B19D192B256
:10414000642392FBF3F403FB1423002B0ED192B2F1
:104150004FF4C87392FBF3F403FB1423002B02D13A
:104160001D23180031E01C2318002EE01D23180029
:104170002BE01C23180028E0C9B2012911D0C9B2D4
:1041800003290ED0C9B205290BD0C9B2072908D01E
:10419000C9B2082905D0C9B20A2902D0C9B20C296E
:1041A00002D11F23180010E0C9B2042908D0C9B2F7
:1041B000062905D0C9B2092902D0C9B20B2902D1FA
:1041C0001E23180001E000231800C0B210BC704785
:1041D00070B4D2B2002A37D0D40700D5521CD2B264
:1041E000520800242300C0B2002822D0C0B20A2402
:1041F00090FBF4F504FB1504DBB2CC54C0B20A24E6
:1042000090FBF4F0C0B20A24DBB2CD5C90FBF4F674
:1042100004FB160455EA0414DBB2CC54C0B20A24E1
:1042200090FBF4F05B1C1C001500E4B2EDB2AC4254
:10423000D9D31C001500E4B2EDB2AC4204D2002484
:10424000DBB2CC545B1CF4E770BC704770B4030065
:104250000024002500201070E4B2022C36DA280079
:104260000E00C0B2F6B2B04230D2E4B2185DC0B2B5
:104270000009C0B20A2801DB002028E010780A26D5
:10428000704310701078E4B21E5DF6B210EB161099
:1042900010706D1C28000E00C0B2F6B2B04215D2EC
:1042A000E4B2185D10F00F000A2801DB00200EE0D8
:1042B00010780A26704310701078E4B21E5D16F074
:1042C0000F06301810706D1C641CC5E7012070BC0F
:1042D00070473FB4020000230A24B2FBF4F504FB4C
:1042E000152430346D46DBB2EC545B1C0A24B2FB5F
:1042F000F4F2002AF0D118001C00631EE4B2002C76
:1043000005D06C46DBB2E45C0C70491CF4E7C0B22B
:1043100004B030BC70471EB40200080000210A231C
:10432000B2FBF3F403FB142330336C46C9B263547D
:10433000491C0A23B2FBF3F2002AF0D1491E6B4656
:10434000C9B25B5C0370401CC9B20029F6D10023DE
:1043500003701EBC7047010000200A78302A09DB78
:104360000A783A2A06DA0A2250430A78303A1018B4
:10437000491CF2E7704713005A1E002B02D08B5CD9
:104380008354F8E770470278002A01D0401CFAE70E
:104390000A78002A04D00A780270401C491CF7E70A
:1043A000704730B403000024185D002809D00800CD
:1043B0001D5DC0B2A84202D11460012003E0641C5C
:1043C000F2E71460002030BC704702000023D05C8C
:1043D00000280AD0D05C302805DBD05C3A2802DA0D
:1043E0000B60012002E05B1CF1E700207047002217
:1043F0005318C35C8354835C002B01D0521CF7E735
:10440000704710B402000020C0B2135CC0B20C5C54
:10441000A34209D1C0B2135C002B05D0C0B20B5C23
:10442000002B01D0401CEFE7C0B20B5C002B02D187
:104430000123180001E000231800C0B210BC70472F
:104440002DE9F04182B004000D00160000275FF056
:10445000000814F8080000281BD06A46297804EBED
:104460000800FFF79EFF00280FD0009810EB080807
:10447000290004EB0800FFF7C4FF002802D0012048
:10448000070006E018F10108E3E7009810EB0808C0
:10449000DFE7C6F800803800C0B2BDE8F681000052
:1044A0002DE9FA4F83B0040015000E9E0F9FDDF832
:1044B0004080DDF844902000002802D105F04FF83C
:1044C000FEE7072E02D305F04AF8FEE74146280032
:1044D00080B200F078FC8246BAF1000F70D0DAF8B2
:1044E0003000ADB200EB8500001F83465FEADB0BB6
:1044F0005FEACB0B1BF00700002802D005F02FF875
:10450000FEE7280080B200904B46320003995046E7
:1045100000F09EFB049A2100584605F04BF8CAF8BB
:104520000000002F01D0C7F800A005F0AAF8DFF8BE
:1045300044060068401CDFF83C160860DFF860069F
:10454000006800280BD1DFF85806C0F800A0DFF89B
:1045500024060068012811D100F0B0FB0EE0DFF85E
:1045600018060068002809D1DFF834060068C06A20
:10457000864203D3DFF82806C0F800A0DFF8FC0568
:104580000068401CDFF8F4150860DFF818060068C2
:104590000121DAF82C2091400843DFF80816086062
:1045A0001AF10401DFF80006DAF82C2014235A432C
:1045B000104405F0F3F80120019005F07AF802E0CC
:1045C0005FF0FF300190019801280CD1DFF8A805B9
:1045D0000068002807D0DFF8C8050068C06AB0424C
:1045E00001D205F045F8019805B0BDE8F08F38B567
:1045F000040005F046F8002C03D1DFF8A405056897
:1046000000E02500281D05F0F2F8002811D1DFF8A0
:104610009805E96A142251434058002809D1DFF86F
:10462000840500680121EA6A91408843DFF8741527
:104630000860A86A002803D015F1180005F0D7F823
:10464000291DDFF8000605F0A9F8DFF8FC05006871
:10465000401CDFF8F4150860DFF820050068401CF6
:10466000DFF81815086005F024F8DFF80C0500687D
:10467000002815D0DFF82805006885420AD1DFF848
:10468000C0070068002802D004F069FFFEE704F0CC
:10469000EFFF05E004F0F5FF00F0BCFB05F009F8C2
:1046A00031BD70B504000026002C2BD0DFF8900738
:1046B0000068002802D004F052FFFEE700F058F82E
:1046C000DFF88805006820180500DFF8D4040068CA
:1046D000001D05F08CF800280ED1DFF8C404006836
:1046E000DFF8C01409680122C06A12FA00F031EA4A
:1046F0000000DFF8B0140860280000F03FFB00F075
:104700003FF80600002E01D104F0B2FF70BD1FB5C6
:1047100000200390002002900020019000200090D3
:1047200000238022DFF8B8180FF20150FFF7B8FE1F
:104730000400012C02D105F07DFE0400012C11D1F2
:1047400004F00DFF5FF0FF30DFF8981808600120DB
:10475000DFF8241408600020DFF8F014086004F08B
:1047600043FF04E0002C02D104F0F9FEFEE71FBD78
:10477000DFF8CC060068401CDFF8C41608607047FC
:1047800038B50025DFF8B8060068002802D104F02B
:10479000E6FEFEE704F075FFDFF8A4060068401EA1
:1047A000DFF89C160860DFF898060068002857D1EB
:1047B000DFF8C0030068002852D0DFF82C0800683A
:1047C00000282AD0DFF82008C068C068040014F16F
:1047D000180005F00CF8201D05F009F8DFF8C403F7
:1047E00000680121E26A91400843DFF8B8130860CD
:1047F000211DDFF8B403E26A14235A43104404F085
:10480000CDFFE06ADFF898130968C96A8842D4D3FB
:104810000120DFF8E8170860CFE7DFF8D00700686D
:10482000002814D0DFF8C407006800280FD000F07B
:1048300020F8002803D00120DFF8C0170860DFF857
:10484000AC070068401EDFF8A4170860EAE7DFF84D
:10485000AC070068012803D10120050004F008FF1F
:1048600004F027FF280032BDDFF8E01309680800D4
:1048700070472DE9F0410026DFF8C40500680028E4
:1048800040F08480DFF8C4030068401CDFF8BC13EC
:104890000860DFF8B8030768002F1FD1DFF8500762
:1048A00000680068002802D004F059FEFEE7DFF837
:1048B000400700688046DFF83C070068DFF83017E3
:1048C0000860DFF83007C0F80080DFF82C070068C8
:1048D000401CDFF82417086000F09CFADFF804079A
:1048E000006887423FD3DFF80807006800680028A7
:1048F00005D15FF0FF30DFF8EC16086033E0DFF839
:10490000F0060068C068C068040060680500AF4237
:1049100003D2DFF8D006056025E0201D04F067FF14
:10492000A06A002803D014F1180004F060FFDFF83B
:10493000740200680121E26A91400843DFF86412C2
:104940000860211DDFF86002E26A14235A43104414
:1049500004F024FFE06A92490968C96A8842C2D318
:1049600001200600BFE790488D490968C96A1422F2
:1049700051434058022801D301200600DFF86C069D
:10498000006800280BD105F0C0F908E0DFF85C06EC
:104990000068401CDFF85416086005F0B6F9DFF82F
:1049A0005C060068002801D0012006003000BDE848
:1049B000F08110B5DFF888040068002804D00120D9
:1049C000DFF83816086029E00020DFF830160860AC
:1049D00074480068B0FA80F0D0F11F0004007248FB
:1049E000142101FB04F14058002802D104F0B7FD66
:1049F000FEE76D49142202FB04F2114408004168ED
:104A000049684160416810F10802914202D1416851
:104A1000496841604068C0686149086010BD70B570
:104A200004000D00002C02D104F099FDFEE75C4863
:104A3000006810F11801200004F0BCFE584800681E
:104A4000001D04F0D4FE00280BD1554800685549DC
:104A500009680122C06A12FA00F031EA00005149E7
:104A6000086015F1010F07D14D480068011DDFF8FE
:104A7000A80404F093FE07E0DFF884050068281816
:104A80000600300000F07AF970BDF8B504000D00A2
:104A90001600002C02D104F062FDFEE740480068D9
:104AA00010F11801200004F079FE3D480068001D57
:104AB00004F09DFE00280BD1394800683949096887
:104AC0000122C06A12FA00F031EA0000354908609C
:104AD000012E07D132480068011DDFF83C0404F0C4
:104AE0005DFE07E0DFF818050068281807003800A9
:104AF00000F044F9F1BD70B50400E068C06805003D
:104B0000002D02D104F02BFDFEE715F1180004F092
:104B10006EFEDFF82C030068002813D1281D04F076
:104B200066FE204800680121EA6A914008431D4959
:104B30000860291D1C48EA6A14235A43104404F0F3
:104B40002DFE05E015F11801DFF89C0404F026FEA7
:104B500013480068C06AE96A884206D2012006004C
:104B60000120DFF89814086001E000200600300002
:104B700070BD000090A300209CA30020ACA30020E7
:104B800010B50400002C02D104F0E9FCFEE7DFF8C8
:104B9000680400682060DFF868040068606010BD89
:104BA00080A3002098A300200C9F0020F8B50400EB
:104BB0000D00002C02D104F0D2FCFEE7002D02D142
:104BC00004F0CDFCFEE704F05CFD2048076828688F
:104BD00010F1010F02D1002006001DE0DFF81804DB
:104BE00000682168884205D06068874202D30120AE
:104BF000060011E06068381A296888420AD22868DD
:104C0000C01B6168081828602000FFF7B9FF00206A
:104C1000060001E00120060004F04BFD3000F2BD6B
:104C20000120DFF8D81308607047000010B50400B9
:104C300000F071F8DFF8CC0300680228F8D304F024
:104C400017FDF5E76CA200208CA3002094A30020A0
:104C50002DE9F04104000D0016001F0000208046E1
:104C6000B8F1100F0CD215F8080004EB080181F818
:104C7000340015F80800002802D018F10108EFE709
:104C8000002084F84300072E01D306200600E662C8
:104C900066640020A064201D04F07DFD14F118005E
:104CA00004F079FD2461D6F10700A0616462002060
:104CB000E064002084F85000BDE8F08110B50020C9
:104CC0000400072C09D2DFF83C03142101FB04F196
:104CD000084404F051FD641CF3E7DFF82C0304F0F2
:104CE0004BFDDFF8280304F047FDDFF8FC0204F079
:104CF00043FDDFF81C0304F03FFD874804F03CFD52
:104D0000DFF80403DFF8E8120860DFF80003DFF8DB
:104D1000E412086010BD38B5DFF8F802006800281A
:104D20002BD0FFF725FDDFF8E8020068002801D14D
:104D3000012400E00024FFF723FD002CECD104F057
:104D4000A0FCDFF8CC02C068C0680500281D04F094
:104D50004EFDDFF8C4020068401EDFF8BC12086098
:104D6000DFF8B0020068401EDFF8A812086004F007
:104D7000A0FC280000F045F8CEE731BD10B50400D6
:104D8000DFF8980200684460DFF87402006884422B
:104D900009D2DFF888020068011DDFF858020068B8
:104DA00004F008FD0EE0DFF874020068011DDFF872
:104DB0004002006804F0FEFC8A480068844201D288
:104DC0008848046010BDF8B504000D00002D04D122
:104DD000A4B2A00004F020FD00E028000700002F8E
:104DE0000BD0542004F018FD0600002E01D03763CC
:104DF00005E0380004F08EFD01E0002006003000E0
:104E0000F2BD10B50400206B04F084FD200004F016
:104E100081FD10BDDFF8D81109680968002904D1A7
:104E20005FF0FF316F4A116008E0DFF8C4110968D4
:104E3000C968C968080041686A4A11607047000083
:104E4000B4A30020DFF8D8110968002902D101219C
:104E5000080009E0DFF8CC110968002902D102211D
:104E6000080001E000210800704738B50400250063
:104E7000002C4ED0E86ADFF8A4110968C96A88429C
:104E800047D2A869002806D4DFF890010068C06AFC
:104E9000D0F10700A8616869DFF86811EA6A142395
:104EA0005A43114488422FD1281D04F0A0FC002849
:104EB00011D1DFF85001E96A14225143405800280B
:104EC00009D1DFF8640100680121EA6A9140884352
:104ED000DFF854110860DFF844010068C06AE86236
:104EE000DFF8440100680121EA6A91400843DFF8D5
:104EF00038110860291DDFF80C01EA6A14235A43AF
:104F0000104404F04BFC04E0DFF810010068C06AB4
:104F1000E86231BD0000000080A2002070B50400EE
:104F200025000026002C49D0DFF8F00000688542FB
:104F300002D004F014FBFEE7A86C002802D104F0B4
:104F40000EFBFEE7A86C401EA864E86A696C884204
:104F500034D0A86C002831D1281D04F048FC00286A
:104F600011D1DFF8A000E96A14225143405800280B
:104F700009D1DFF8B40000680121EA6A9140884352
:104F8000DFF8A4100860686CE862E86AD0F10700F6
:104F9000A861DFF8940000680121EA6A91400843A3
:104FA000DFF884100860291DDFF85800EA6A14232E
:104FB0005A43104404F0F2FB01200600300070BD9B
:104FC000DFF858000068002805D0DFF850000068BE
:104FD000816C491C8164DFF8440000687047000060
:104FE00094DF0008B0A3002058A20020A0A3002056
:104FF00084A3002088A30020A8A30020A4A300204D
:1050000094A300200C9F002030A2002044A2002086
:105010006CA200208CA3002090A3002080A300207D
:105020009CA30020B4A3002098A300200100481EE8
:105030000029FBD1704770B5040000F08DF9002CF9
:1050400000F0B880E088B0F5FA6F09DBE08840F640
:105050003301884203DAE088303005000AE0A9E035
:10506000E08840F26D71884203DBE0886C3805000F
:1050700000E09FE06079002802D060790D2800DB15
:1050800098E02079002802D02079202800DB91E0E8
:10509000A078182880F28E8060783C2880F28A8080
:1050A00020783C2880F28680EDB20A2095FBF0F053
:1050B00006003601EDB20A2095FBF0F100FB11501D
:1050C00006433100C9B2082000F0AAFA6079050051
:1050D000EDB20A2095FBF0F006003601EDB20A2091
:1050E00095FBF0F100FB11500643E088B0F5FA6F34
:1050F00001DA56F080063100C9B2072000F090FABC
:1051000020790500EDB20A2095FBF0F0060036018B
:10511000EDB20A2095FBF0F100FB1150064331007F
:10512000C9B2052000F07CFA22796179E08800F0AC
:10513000E2F8E070E178062000F072FAA07805004D
:10514000EDB20A2095FBF0F006003601EDB20A2020
:1051500095FBF0F100FB115006433100C9B2042069
:1051600000F05EFA60780500EDB20A2095FBF0F0E1
:1051700006003601EDB20A2095FBF0F100FB11505C
:1051800006433100C9B2032000F04AFA2078050036
:10519000EDB20A2095FBF0F006003601EDB20A20D0
:1051A00095FBF0F100FB115006433100C9B202201B
:1051B00000F036FA70BDF8B5040000F0CDF8072015
:1051C00000F050FA060016F08000050016F01F06E9
:1051D00016F00F000700F6B23609FFB2F6B20A2049
:1051E00000FB06776771082000F03CFA060016F015
:1051F0000F000700F6B23609FFB2F6B20A2000FB34
:105200000677EDB2002D04D0FFB207F26C70E0809B
:1052100003E0FFB217F5FA60E080052000F022FA03
:1052200010F03F00060016F00F000700F6B2360936
:10523000FFB2F6B20A2000FB06772771062000F0C5
:1052400011FA10F00700E070042000F00BFA10F0E3
:105250003F00060016F00F000700F6B23609FFB255
:10526000F6B20A2000FB0677A770032000F0FAF9D7
:1052700010F07F00060016F00F000700F6B23609A6
:10528000FFB2F6B20A2000FB06776770022000F03A
:10529000E9F910F07F00060016F00F000700F6B2E3
:1052A0003609FFB2F6B20A2000FB06772770F1BD7F
:1052B00010B50400FFF75CFADFF85C03007820709B
:1052C000DFF85403C088E080DFF84C034079607158
:1052D000DFF8440300792071DFF83C03C078E07008
:1052E000DFF834038078A070DFF82C03407860701A
:1052F000FFF746FA10BD30B40300C9B2012902D04D
:10530000C9B2022901D10C315B1ED2B2C9B212EB73
:105310004100C9B24C1C03256C43052594FBF5F4F0
:1053200020189BB218189BB2042493FBF4F42018A5
:105330009BB2642493FBF4F4001B9BB24FF4C8743B
:1053400093FBF4F42018072490FBF4F504FB1500FC
:10535000401CC0B230BC704700B583B001210220B0
:1053600004F043FF4FF44060009001208DF80400EA
:1053700001208DF8060003208DF8050000208DF82F
:1053800007006946A54804F0C5FF4FF44061A348F3
:1053900005F01FF807BD80B5A048006830F4400054
:1053A0009E4908609D48006850F480009B49086051
:1053B0004FF40061994805F00CF84FF4806197486C
:1053C00005F007F80420FFF731FE4FF40061934821
:1053D00005F001F80420FFF729FE4FF480618F48A3
:1053E00004F0F9FF01BD80B58C48006830F440003E
:1053F0008A4908608948006850F48000874908603D
:105400004FF40061854804F0E6FF4FF48061834863
:1054100004F0DFFF0420FFF709FE4FF400617F482E
:1054200004F0D7FF0420FFF701FE4FF480617B48B2
:1054300004F0CFFF01BD10B500247848006830F4B7
:1054400040007649086075480068744908604FF468
:105450008061724804F0BDFF0120FFF7E7FD4FF4C3
:1054600000616E4804F0A8FF002807D0641CA4B2B5
:10547000FB2CF4DBFFF7B7FF012005E04FF4806160
:10548000664804F0A8FF002010BD80B54FF480618D
:10549000624804F0A0FF6148006830F440005F49B2
:1054A00008605E48006850F480005C4908604FF472
:1054B00000615A4804F08FFF0220FFF7B7FD4FF458
:1054C0008061564804F085FF0220FFF7AFFD4FF4DE
:1054D0008061524804F07FFF01BD80B54FF48061C8
:1054E0004E4804F078FF4D48006830F440004B49C6
:1054F00008604A48006850F48000484908604FF44A
:105500000061464804F065FF0220FFF78FFD4FF46D
:105510008061424804F05DFF0220FFF787FD4FF4F1
:1055200080613E4804F057FF01BD38B504003B4898
:10553000006830F44000394908603848006850F489
:105540008000364908604FF48061344804F043FF1E
:1055500000200500EDB2082D24DAC4F3C0100028A5
:1055600005D04FF400612D4804F033FF04E04FF400
:1055700000612A4804F02FFF64000220FFF756FD67
:105580004FF48061254804F024FF0220FFF74EFD10
:105590004FF48061214804F01EFF0220FFF746FD12
:1055A0006D1CD7E731BD70B5040000261B480068AC
:1055B00030F440001949086018480068174908602D
:1055C00000200500EDB2082D1ADA4FF4806113486F
:1055D00004F001FF0220FFF729FD4FF480610F481E
:1055E00004F0F7FE76004FF400610C4804F0E4FE8E
:1055F000002800D0761C0120FFF718FD6D1CE1E7A4
:10560000E4B2002C02D1FFF768FF01E0FFF73DFF95
:105610003000C0B270BD000010A3002000040240A2
:1056200070B504000D00FFF7B6FEA220FFF77DFF66
:1056300064200600FFF7FFFE002804D0F6B2002E1B
:1056400001D0761EF6E7E4B22000FFF76EFFFFF709
:10565000F2FEEDB22800FFF768FFFFF7ECFEFFF760
:10566000C2FE70BD70B504000025FFF794FEA220B5
:10567000FFF75BFF64200600FFF7DDFE002804D083
:10568000F6B2002E01D0761EF6E7E4B22000FFF756
:105690004CFFFFF7D0FEFFF77EFEA320FFF745FF8C
:1056A000FFF7C9FE0020FFF77EFF0500FFF79BFE16
:1056B0002800C0B270BD000003001000421E80B27E
:1056C000002804D092B2985C92B28854F5E7012089
:1056D00070472DE9F04104000D001600002705F089
:1056E000BEF83000461E80B200280FD0BFB2B6B25E
:1056F000F019295CB6B2301905F0CAF880465FFA95
:1057000088F8B8F1040FECD0002002E005F0B7F8FB
:105710000120BDE8F081F8B504000D001600002757
:105720000023322200211E480068FCF703FF0128F5
:1057300001D0802010E0320092B2290089B220000E
:1057400005F02AFA0700002300220021144800680F
:10575000FCF7DFFD3800C0B2F2BDF8B504000D0063
:10576000160000270023322200210D480068FCF7B4
:10577000E1FE012801D0802010E0320092B2290021
:1057800089B2200005F0A6FA0700002300220021BC
:1057900003480068FCF7BDFD3800C0B2F2BD000050
:1057A0006CA300200300002013F0030F09D0521E49
:1057B00022BF13F8010B11F801CBB0EB0C00F3D0B2
:1057C0007047121F22BF53F8040B51F804CB6045F9
:1057D000F7D0121D0AD200BA9CFA8CFCB0EB0C0078
:1057E00038BF6FF0000088BF01207047521E22BFF3
:1057F00013F8010B11F801CBB0EB0C00F6D0521CE2
:1058000008BF10467047000062F30F2262F31F4288
:10581000401810F0030308D0C91A1FD3DB0748BF94
:1058200000F8012D28BF20F8022D130030B41446D3
:105830001546103928BF20E93C00FAD8490728BF8F
:1058400020E90C0048BF40F8042D890028BF20F84B
:10585000022D48BF00F8012D30BC7047C91818BF91
:1058600000F8012DCB0728BF00F8012D704700007C
:1058700038B50400002510220C212000FFF76DFF31
:105880000500EDB2002D05D11C2202216846FFF76C
:1058900064FF0500EDB2002D0AD10C212000FEF7B7
:1058A0001FFCBDF8001080B2814201D079200500B4
:1058B000EDB2002D04D10020DFF8E414087003E0FD
:1058C0000120DFF8DC1408702800C0B232BD70B5CA
:1058D00086B0040000250C212000FEF701FCADF885
:1058E00000000020060010220C212000FFF713FF0B
:1058F0000500EDB2002D05D11C2202216846FFF7FC
:105900000AFF0500EDB2002D12D110220E2101A8D0
:10591000FFF723FF05000C22210001A8FFF742FF3B
:10592000002805D1BDF80000BDF81010884204D051
:105930003000461CC0B20328D5DBF6B2032E01DBD3
:105940007B2005002800C0B206B070BDF8B5040089
:105950000D0000262027ADB20D2000FB05773A0090
:1059600092B20B212000FFF7F8FE0600F6B2002EDF
:1059700007D117F10B0292B202216846FFF7EDFE44
:105980000600F6B2002E19D1207810F00100002890
:1059900012D00B212000FEF7A3FBBDF8001080B24F
:1059A00081420BD00120DFF8FC130870DFF8F80308
:1059B00005807920060001E0742006003000C0B2A6
:1059C000F2BDF8B504000D0016000027BFB2B7F510
:1059D000C87F10DA390089B22000FFF7B7FF3070B6
:1059E000002E06D10722A11C2800FFF7DBFE0028AD
:1059F00001D07F1CEAE7BFB2B7F5C87F01DB742096
:105A00003070380080B2F2BD2DE9F84304000D007B
:105A100016001F005FF00008F6B2002E02D0F6B2AA
:105A2000052E01DB652027E0F6B2701E6421484395
:105A300081461FFA88F8B8F1640F14DA494689B232
:105A40002000FFF783FF38703878002806D107223E
:105A5000A11C2800FFF7A6FE002804D019F10109B7
:105A600018F10108E5E71FFA88F8B8F1640F01DBC7
:105A700074203870484680B2BDE8F2832DE9F041C9
:105A800086B004000D00002600275FF02008ADB2AC
:105A90000D2000FB05880B212000FEF721FBADF84F
:105AA0000000424692B20B212000FFF734FE0600B0
:105AB000F6B2002E07D118F10B0292B2022168460D
:105AC000FFF729FE0600F6B2002E16D1424692B22A
:105AD0000D2101A8FFF741FE06000B22210001A8BD
